:100000000C942A000C943C000C943C000C943C0092
:100010000C943C000C943C000C943C000C943C0070
:100020000C94BD020C943C000C943C000C943C00DD
:100030000C943C000C943C000C943C000C943C0050
:100040000C943C000C943C000C943C000C943C0040
:100050000C943C0011241FBECFE5D8E0DEBFCDBF1D
:1000600010E0A0E6B0E001C01D92AA37B107E1F7A9
:100070000E94C0010C94C8020C940000089590BD29
:1000800089B988E18AB986E880BD08958FEF87BB7A
:100090001ABA18BA87E08BBB11BA089587E487B9FA
:1000A00087E886B908951FBC85E08EBD88E089BFCA
:1000B000789480EA97E099BD88BD1DBC1CBC08956A
:1000C00018BA0895369A349BFECF349A24B135B1CC
:1000D000C90108950E9462009C0190936F00809373
:1000E0006E008F31910528F181E088BB2D333105F9
:1000F00000F182E088BB2B353105D8F084E088BB65
:1001000029373105B0F088E088BB2739310588F000
:1001100080E188BB253B310560F080E288BB233D50
:10012000310538F080E488BB213F310510F080E8CC
:1001300088BB203F310510F08FEF88BB08955D9B91
:10014000FECF8CB9089580E990E00E949F0083E47F
:1001500090E00E949F0084E690E00E949F0088E863
:1001600093E124E630E0F9013197F1F70197D9F7EF
:1001700080E890E00E949F0083E490E00E949F004E
:1001800084E690E00E949F0088E893E124E630E056
:10019000F9013197F1F70197D9F780E990E00E94D2
:1001A0009F0082E690E00E949F0084E690E00E941B
:1001B0009F0088E893E124E630E0F9013197F1F7F8
:1001C0000197D9F780E890E00E949F0082E690E0D6
:1001D0000E949F0084E690E00E949F0088E893E1DF
:1001E00024E630E0F9013197F1F70197D9F780E97A
:1001F00090E00E949F008CE390E00E949F0084E6C4
:1002000090E00E949F0088E893E124E630E0F90145
:100210003197F1F70197D9F780E890E00E949F00AD
:100220008CE390E00E949F0084E690E00E949F0093
:1002300088E893E124E630E0F9013197F1F701977E
:10024000D9F7089510926B0010926A0019C0E199D5
:10025000FECF3FBB2EBBE09A8DB388BBE199FECFAA
:100260003FBB2EBBE09A8DB390E00E949F0080912F
:100270006A0090916B00019690936B0080936A00E6
:1002800020916A0030916B0080916C0090916D001C
:1002900028173907E0F210926B0010926A00089557
:1002A0000E94220108955F9BFECF8CB1089501C08A
:1002B0008CB15F99FDCF089580B580B508952FB7B3
:1002C000F8948CB59DB52FBF08952FB7F8949DBDB8
:1002D0008CBD2FBF0895E199FECF9FBB8EBB6DBB38
:1002E000E29AE19A0895CF93DF93C0E7D0E0FE0150
:1002F0005F9BFECF8CB1819320E0E337F207C1F71B
:100300008091710088BB1DBC1CBC2CB53DB5422F33
:10031000922F80E0892F990F990B8083118232965A
:100320005F9BFECF8CB1819380E0E837F807C1F77F
:100330002CB53DB5922F941B80E0892F990F990B16
:100340008083118280916A0090916B0069910E9474
:100350006B0180916A0090916B00019690936B0005
:1003600080936A0020E0CA37D20761F790936D004E
:1003700080936C00DF91CF9108950E9473010895DE
:100380001F938FEF87BB1ABA18BA17E01BBB11BABD
:100390000E94530087E487B987E886B910BC19B971
:1003A00088E18AB986E880BD89B399B3927029B390
:1003B00082FF05C09923C1F70E947301F5CF9923ED
:1003C00099F320FDF1CF0E942201EECF81E090E071
:1003D00061E00E946B0182E090E062E00E946B01AC
:1003E00083E090E063E00E946B0184E090E064E0D1
:1003F0000E946B0185E090E065E00E946B0186E061
:1004000090E066E00E946B0187E090E067E00E9468
:100410006B0188E090E068E00E946B0189E090E069
:1004200069E00E946B01E199FECF81E090E09FBB03
:100430008EBBE09A8DB388BB88E893E124E630E078
:10044000F9013197F1F70197D9F7E199FECF82E0F1
:1004500090E09FBB8EBBE09A8DB388BB88E893E1A8
:1004600024E630E0F9013197F1F70197D9F7E199E6
:10047000FECF83E090E09FBB8EBBE09A8DB388BB3C
:1004800088E893E124E630E0F9013197F1F701972C
:10049000D9F7E199FECF84E090E09FBB8EBBE09A54
:1004A0008DB388BB88E893E124E630E0F901319709
:1004B000F1F70197D9F7E199FECF85E090E09FBB76
:1004C0008EBBE09A8DB388BB88E893E124E630E0E8
:1004D000F9013197F1F70197D9F7E199FECF86E05D
:1004E00090E09FBB8EBBE09A8DB388BB88E893E118
:1004F00024E630E0F9013197F1F70197D9F7E19956
:10050000FECF87E090E09FBB8EBBE09A8DB388BBA7
:1005100088E893E124E630E0F9013197F1F701979B
:10052000D9F7E199FECF88E090E09FBB8EBBE09ABF
:100530008DB388BB88E893E124E630E0F901319778
:10054000F1F70197D9F7E199FECF89E090E09FBBE1
:100550008EBBE09A8DB388BB88E893E124E630E057
:10056000F9013197F1F70197D9F70895E199FECF95
:100570009FBB8EBBE09A8DB308951F920F920FB66A
:100580000F92112418BA0F900FBE0F901F9018955C
:04059000F894FFCF0D
:00000001FF
