:100000000C942A000C9434000C9434000C943400AA
:100010000C9434000C9434000C9434000C94340090
:100020000C9434000C9434000C9434000C94340080
:100030000C9434000C9434000C9434000C94340070
:100040000C9434000C9434000C9434000C94340060
:100050000C94340011241FBECFE5D8E0DEBFCDBF25
:100060000E9436000C945C000C9400008FEF87BB5C
:100070001ABA18BA87E08BBB51E042E034E089B38A
:1000800099B3927029B382FF04C0992351F458BBED
:10009000F6CF992331F020FF02C038BBF0CF48BB28
:1000A000EECF18BAECCF81E088BB089582E088BB20
:0C00B000089584E088BB0895F894FFCF09
:00000001FF
