:100000000C942A000C943C000C943C000C943C0092
:100010000C943C000C943C000C943C000C943C0070
:100020000C94C4020C943C000C943C000C943C00D6
:100030000C943C000C943C000C943C000C943C0050
:100040000C943C000C943C000C943C000C943C0040
:100050000C943C0011241FBECFE5D8E0DEBFCDBF1D
:1000600010E0A0E6B0E001C01D92A737B107E1F7AC
:100070000E94C7010C94CF020C940000089590BD1B
:1000800089B988E18AB986E880BD08958FEF87BB7A
:100090001ABA18BA87E08BBB11BA089587E487B9FA
:1000A00087E886B908951FBC85E08EBD88E089BFCA
:1000B000789480EA97E099BD88BD1DBC1CBC08956A
:1000C00018BA0895369A349BFECF349A24B135B1CC
:1000D000C90108950E9462009C0190937100809371
:1000E00070008F31910528F181E088BB2D333105F7
:1000F00000F182E088BB2B353105D8F084E088BB65
:1001000029373105B0F088E088BB2739310588F000
:1001100080E188BB253B310560F080E288BB233D50
:10012000310538F080E488BB213F310510F080E8CC
:1001300088BB203F310510F08FEF88BB08955D9B91
:10014000FECF8CB9089580E990E00E949F0083E47F
:1001500090E00E949F0084E690E00E949F0088E863
:1001600093E124E630E0F9013197F1F70197D9F7EF
:1001700080E890E00E949F0083E490E00E949F004E
:1001800084E690E00E949F0088E893E124E630E056
:10019000F9013197F1F70197D9F780E990E00E94D2
:1001A0009F0082E690E00E949F0084E690E00E941B
:1001B0009F0088E893E124E630E0F9013197F1F7F8
:1001C0000197D9F780E890E00E949F0082E690E0D6
:1001D0000E949F0084E690E00E949F0088E893E1DF
:1001E00024E630E0F9013197F1F70197D9F780E97A
:1001F00090E00E949F008CE390E00E949F0084E6C4
:1002000090E00E949F0088E893E124E630E0F90145
:100210003197F1F70197D9F780E890E00E949F00AD
:100220008CE390E00E949F0084E690E00E949F0093
:1002300088E893E124E630E0F9013197F1F701977E
:10024000D9F70895CF93DF9331C0E199FECF3FBB3B
:100250002EBBE09A8DB381932F5F3F4F80E0E7374D
:10026000F80799F74B5F5F4F50936D0040936C0018
:10027000D0917600C0E0809175009E01280F311D5D
:100280001DBC1CBC8CB59DB582179307D8F380911B
:10029000720090E00E949F008091730090E00E94A5
:1002A0009F008091740090E00E949F0040916C003C
:1002B00050916D0080916E0090916F004817590722
:1002C00020F4E2E7F0E09A01C0CF10926D001092A6
:1002D0006C00DF91CF9108950E94220108955F9BE9
:1002E000FECF8CB1089501C08CB15F99FDCF089508
:1002F00080B580B508952FB7F8948CB59DB52FBF04
:1003000008952FB7F8949DBD8CBD2FBF0895E19936
:10031000FECF9FBB8EBB6DBBE29AE19A0895CF934F
:10032000DF931DBC1CBCC2E7D0E0FE015F9BFECF8B
:100330008CB1819380E0E537F807C1F780917300B5
:1003400088BB8CB59DB58083918380916A00909124
:100350006B0090936F0080936E0080916A00909183
:100360006B0069910E94870180916A0090916B00F7
:10037000019690936B0080936A0080E0C737D8079E
:1003800061F7DF91CF9108950E948F0108951F9327
:100390008FEF87BB1ABA18BA17E01BBB11BA0E94BD
:1003A000530087E487B987E886B910BC19B988E19A
:1003B0008AB986E880BD89B399B3927029B382FF68
:1003C00005C09923C1F70E948F01F5CF992399F3B6
:1003D00020FDF1CF0E942201EECF81E090E061E0AC
:1003E0000E94870182E090E062E00E94870183E042
:1003F00090E063E00E94870184E090E064E00E9466
:10040000870185E090E065E00E94870186E090E04A
:1004100066E00E94870187E090E067E00E94870124
:1004200088E090E068E00E94870189E090E069E060
:100430000E948701E199FECF81E090E09FBB8EBBD7
:10044000E09A8DB388BB88E893E124E630E0F901B7
:100450003197F1F70197D9F7E199FECF82E090E06B
:100460009FBB8EBBE09A8DB388BB88E893E124E6FE
:1004700030E0F9013197F1F70197D9F7E199FECF13
:1004800083E090E09FBB8EBBE09A8DB388BB88E889
:1004900093E124E630E0F9013197F1F70197D9F7BC
:1004A000E199FECF84E090E09FBB8EBBE09A8DB3D4
:1004B00088BB88E893E124E630E0F9013197F1F751
:1004C0000197D9F7E199FECF85E090E09FBB8EBB05
:1004D000E09A8DB388BB88E893E124E630E0F90127
:1004E0003197F1F70197D9F7E199FECF86E090E0D7
:1004F0009FBB8EBBE09A8DB388BB88E893E124E66E
:1005000030E0F9013197F1F70197D9F7E199FECF82
:1005100087E090E09FBB8EBBE09A8DB388BB88E8F4
:1005200093E124E630E0F9013197F1F70197D9F72B
:10053000E199FECF88E090E09FBB8EBBE09A8DB33F
:1005400088BB88E893E124E630E0F9013197F1F7C0
:100550000197D9F7E199FECF89E090E09FBB8EBB70
:10056000E09A8DB388BB88E893E124E630E0F90196
:100570003197F1F70197D9F70895E199FECF9FBB25
:100580008EBBE09A8DB308951F920F920FB60F9213
:10059000112418BA0F900FBE0F901F901895F89461
:0205A000FFCF8B
:00000001FF
