:100000000C942A000C9434000C9434000C943400AA
:100010000C9434000C9434000C9434000C94340090
:100020000C9434000C9434000C9434000C94340080
:100030000C9434000C9434000C9434000C94340070
:100040000C9434000C9434000C9434000C94340060
:100050000C94340011241FBECFE5D8E0DEBFCDBF25
:100060000E9436000C944F000C9400008FEF87BB69
:100070001ABA18BA87E08BBB21E092E084E0CA9BF1
:1000800002C0C99B28BBC99B08C0CA9906C0C89BAF
:1000900002C088BBF4CF98BBF2CF18BAF0CFF89467
:0200A000FFCF90
:00000001FF
