:100000000C942A000C9447000C9447000C94470071
:100010000C9447000C9447000C9447000C94470044
:100020000C9426030C9447000C9447000C94470052
:100030000C9447000C9447000C9447000C94470024
:100040000C9447000C9447000C9447000C94470014
:100050000C94470011241FBECFE5D8E0DEBFCDBF12
:1000600011E0A8E6B1E001C01D92A238B107E1F7A6
:1000700011E0A0E6B0E0E8E1F3E102C005900D92E6
:10008000A836B107D9F70E94F9020C948A090C949A
:100090000000089590BD89B988E18AB986E880BDDD
:1000A00008958FEF87BB1ABA18BA87E08BBB11BAD5
:1000B000089587E487B987E886B908951FBC85E06D
:1000C0008EBD88E089BF789480EA97E099BD88BDAD
:1000D0001DBC1CBC089518BA0895369A349BFECFF7
:1000E000349A24B135B1C90108950E946D009C0174
:1000F00090937701809376018F31910528F181E00B
:1001000088BB2D33310500F182E088BB2B353105EA
:10011000D8F084E088BB29373105B0F088E088BB8F
:100120002739310588F080E188BB253B310560F037
:1001300080E288BB233D310538F080E488BB213F55
:10014000310510F080E888BB203F310510F08FEFBB
:1001500088BB08955D9BFECF8CB9089580E990E03F
:100160000E94AA0083E490E00E94AA0084E690E046
:100170000E94AA0088E893E124E630E0F901319773
:10018000F1F70197D9F780E890E00E94AA0083E494
:1001900090E00E94AA0084E690E00E94AA0088E80D
:1001A00093E124E630E0F9013197F1F70197D9F7AF
:1001B00080E990E00E94AA0082E690E00E94AA00F6
:1001C00084E690E00E94AA0088E893E124E630E00B
:1001D000F9013197F1F70197D9F780E890E00E9493
:1001E000AA0082E690E00E94AA0084E690E00E94C5
:1001F000AA0088E893E124E630E0F9013197F1F7AD
:100200000197D9F780E990E00E94AA008CE390E082
:100210000E94AA0084E690E00E94AA0088E893E188
:1002200024E630E0F9013197F1F70197D9F780E83A
:1002300090E00E94AA008CE390E00E94AA0084E66D
:1002400090E00E94AA0088E893E124E630E0F901FA
:100250003197F1F70197D9F708958F929F92AF9256
:10026000BF92CF92DF92EF92FF920F931F93CF93A3
:10027000DF93109273011092720184E6882E912C04
:1002800063C0E199FECF3FBB2EBBE09A8DB388BB24
:10029000E199FECF3FBB2EBBE09A8DB390E00E9468
:1002A000AA00C0917201D09173012196D09373017D
:1002B000C0937201E199FECFDFBBCEBBE09A6DB374
:1002C00070E080E090E00E94E5065B016C0120E0B8
:1002D00030E04AE754E40E9407057B018C0120E0EE
:1002E00030E040E85FE30E94610688231CF461E08F
:1002F00070E022C0C801B70120E03FEF4FE757E4AC
:100300000E9401061816A4F4C601B50120E030E0F1
:1003100040E251E40E9407050E94310305C0C40178
:100320000197F1F76150704061157105C1F707C081
:10033000C801B7010E943103CB010197F1F7219663
:10034000D0937301C09372012091720130917301B7
:1003500080917401909175012817390708F491CFA5
:10036000DF91CF911F910F91FF90EF90DF90CF9091
:10037000BF90AF909F908F9008955F9BFECF8CB100
:10038000089501C08CB15F99FDCF089580B580B507
:1003900008952FB7F8948CB59DB52FBF08952FB74A
:1003A000F8949DBD8CBD2FBF0895E199FECF9FBBF2
:1003B0008EBB6DBBE29AE19A0895CF93DF93C8E7B5
:1003C000D1E0FE015F9BFECF8CB1819381E0EB37E2
:1003D000F807C1F78091790188BB1DBC1CBC2CB506
:1003E0003DB5422F922F80E0892F990F990B808382
:1003F000118232965F9BFECF8CB1819381E0E03811
:10040000F807C1F72CB53DB5922F941B80E0892FDA
:10041000990F990B808311828091720190917301E1
:1004200069910E94D50180917201909173010196AA
:10043000909373018093720181E0C238D80761F70D
:10044000DF91CF9108950E94DD01089581E090E051
:1004500061E00E94D50182E090E062E00E94D50157
:1004600083E090E063E00E94D50184E090E064E0E6
:100470000E94D50185E090E065E00E94D50186E00C
:1004800090E066E00E94D50187E090E067E00E947E
:10049000D50188E090E068E00E94D50189E090E015
:1004A00069E00E94D501E199FECF81E090E09FBB19
:1004B0008EBBE09A8DB388BB88E893E124E630E0F8
:1004C000F9013197F1F70197D9F7E199FECF82E071
:1004D00090E09FBB8EBBE09A8DB388BB88E893E128
:1004E00024E630E0F9013197F1F70197D9F7E19966
:1004F000FECF83E090E09FBB8EBBE09A8DB388BBBC
:1005000088E893E124E630E0F9013197F1F70197AB
:10051000D9F7E199FECF84E090E09FBB8EBBE09AD3
:100520008DB388BB88E893E124E630E0F901319788
:10053000F1F70197D9F7E199FECF85E090E09FBBF5
:100540008EBBE09A8DB388BB88E893E124E630E067
:10055000F9013197F1F70197D9F7E199FECF86E0DC
:1005600090E09FBB8EBBE09A8DB388BB88E893E197
:1005700024E630E0F9013197F1F70197D9F7E199D5
:10058000FECF87E090E09FBB8EBBE09A8DB388BB27
:1005900088E893E124E630E0F9013197F1F701971B
:1005A000D9F7E199FECF88E090E09FBB8EBBE09A3F
:1005B0008DB388BB88E893E124E630E0F9013197F8
:1005C000F1F70197D9F7E199FECF89E090E09FBB61
:1005D0008EBBE09A8DB388BB88E893E124E630E0D7
:1005E000F9013197F1F70197D9F708950E94260292
:1005F00008951F938FEF87BB1ABA18BA17E01BBB79
:1006000011BA0E945E0087E487B987E886B910BCFA
:1006100019B988E18AB986E880BD89B399B3927027
:1006200029B382FF05C09923C1F70E94DD01F5CFF0
:10063000992399F320FDF1CF0E942602EECFE19994
:10064000FECF9FBB8EBBE09A8DB308951F920F9291
:100650000FB60F92112418BA0F900FBE0F901F9073
:100660001895EF92FF920F931F937B018C0120E06E
:1006700030E040E05FE40E94310688238CF0C8013E
:10068000B70120E030E040E05FE40E94A9040E944E
:1006900091069B01AC01205030404040504806C0BC
:1006A000C801B7010E9491069B01AC01B901CA01C2
:1006B0001F910F91FF90EF900895A0E0B0E0E3E666
:1006C000F3E00C945309DC012B01FA019C91923068
:1006D00008F439C1EB018881823008F433C19430C9
:1006E00069F4843009F02FC111969C91119789818A
:1006F000981709F428C1A0E6B0E025C1843009F4B8
:1007000021C18230A9F4923009F01DC19A01AD01D6
:1007100088E0EA010990AE01E90109929E01815049
:10072000C1F7E201898111969C918923818308C1D7
:10073000923009F407C112962D903C901397EB016B
:100740008A819B811496AD90BD90CD90DC901797D7
:10075000EC80FD800E811F819101281B390BB901AE
:1007600037FF04C066277727621B730B6032710561
:100770000CF061C0121613066CF537014801062E05
:1007800004C096948794779467940A94D2F721E0F2
:1007900030E040E050E004C0220F331F441F551FDB
:1007A0006A95D2F721503040404050402E213F21E1
:1007B00040235123211531054105510521F021E048
:1007C00030E040E050E079018A01E628F728082966
:1007D00019293CC0232BD1F1260E371E35014601C5
:1007E000062E04C096948794779467940A94D2F75F
:1007F00021E030E040E050E004C0220F331F441FEE
:10080000551F6A95D2F721503040404050402A2170
:100810003B214C215D21211531054105510521F078
:1008200021E030E040E050E059016A01A628B728F5
:10083000C828D9280BC0821593052CF01C01AA24C6
:10084000BB24650103C0EE24FF24870111969C910F
:10085000D20111968C91981709F445C0992339F06B
:10086000A80197012A193B094C095D0906C0A60198
:1008700095012E193F09400B510B57FD08C01182FD
:100880003382228224833583468357831DC081E0CF
:1008900081833382228288279927DC01821B930B74
:1008A000A40BB50B84839583A683B7830DC0220F59
:1008B000331F441F551F248335834683578382810A
:1008C0009381019793838283248135814681578167
:1008D000DA01C9010197A109B1098F5F9F4FAF4F9D
:1008E000BF4328F30BC0918333822282EA0CFB1CA6
:1008F0000C1D1D1DE482F5820683178383E080832F
:10090000248135814681578157FF1AC0C901AA2722
:1009100097FDA095BA2F81709070A070B070569519
:10092000479537952795822B932BA42BB52B848342
:100930009583A683B7838281938101969383828373
:10094000DF0101C0D201CD01CDB7DEB7E2E10C94E9
:100950006F09A0E2B0E0EFEAF4E00C945F0969836C
:100960007A838B839C832D833E834F835887E9E072
:10097000EE2EF12CEC0EFD1ECE010196B7010E9469
:1009800082088E010F5E1F4FCE010596B8010E94AE
:1009900082088A8991E089278A8BC701B801AE0154
:1009A000475E5F4F0E945D030E94AD07A096E6E0A0
:1009B0000C947B09A0E2B0E0E0EEF4E00C945F0957
:1009C00069837A838B839C832D833E834F835887EF
:1009D000F9E0EF2EF12CEC0EFD1ECE010196B701D1
:1009E0000E9482088E010F5E1F4FCE010596B8014E
:1009F0000E948208C701B801AE01475E5F4F0E94A6
:100A00005D030E94AD07A096E6E00C947B09A0E28E
:100A1000B0E0EDE0F5E00C94530969837A838B83B1
:100A20009C832D833E834F835887CE010196BE0160
:100A3000675F7F4F0E948208CE010596BE016F5E00
:100A40007F4F0E9482089985923088F08989823090
:100A5000C8F0943019F4823051F404C0843029F481
:100A6000923081F480E690E0C6C0923049F420E0F4
:100A70009A858A89981321E02A87CE010996BBC0FE
:100A8000823049F420E09A858A89981321E02A8BE4
:100A9000CE014196B0C02D843E844F8458886D8825
:100AA0007E888F88988CEE24FF248701AA24BB249B
:100AB000650140E050E060E070E0E0E0F0E0C1019E
:100AC00081709070892BE9F0E60CF71C081D191D48
:100AD0009A01AB012A0D3B1D4C1D5D1D80E090E08D
:100AE000A0E0B0E0E614F7040805190520F481E061
:100AF00090E0A0E0B0E0BA01A901480F591F6A1FB9
:100B00007B1FAA0CBB1CCC1CDD1C97FE08C081E01F
:100B100090E0A0E0B0E0A82AB92ACA2ADB2A3196E0
:100B2000E032F10549F0660C771C881C991C56943C
:100B3000479437942794C3CFFA85EA892B893C8957
:100B40008B859C85280F391F2E5F3F4F17C0CA0128
:100B500081709070892B61F016950795F794E79452
:100B600080E090E0A0E0B0E8E82AF92A0A2B1B2BED
:100B700076956795579547952F5F3F4F77FDE7CF60
:100B80000CC0440F551F661F771F17FD4160EE0C08
:100B9000FF1C001F111F21503040403090E05907CA
:100BA00090E0690790E4790760F32B8F3C8FDB01BD
:100BB000CA018F779070A070B07080349105A10544
:100BC000B10561F447FD0AC0E114F1040105110506
:100BD00029F0405C5F4F6F4F7F4F40781A8EFE17B1
:100BE00011F081E08A8F4D8F5E8F6F8F78A383E045
:100BF000898FCE0149960E94AD07A096E2E10C9440
:100C00006F09A8E1B0E0E7E0F6E00C945F096983C2
:100C10007A838B839C832D833E834F83588789E01F
:100C2000E82EF12CEC0EFD1ECE010196B7010E94BC
:100C300082088E010F5E1F4FCE010596B8010E94FB
:100C400082088985823040F08989823028F0C70186
:100C5000B8010E94FA0801C08FEF6896E6E00C9494
:100C60007B09A8E1B0E0E7E3F6E00C945F09698353
:100C70007A838B839C832D833E834F83588789E0BF
:100C8000E82EF12CEC0EFD1ECE010196B7010E945C
:100C900082088E010F5E1F4FCE010596B8010E949B
:100CA00082088985823040F08989823028F0C70126
:100CB000B8010E94FA0801C08FEF6896E6E00C9434
:100CC0007B09A8E1B0E0E7E6F6E00C945F096983F0
:100CD0007A838B839C832D833E834F83588789E05F
:100CE000E82EF12CEC0EFD1ECE010196B7010E94FC
:100CF00082088E010F5E1F4FCE010596B8010E943B
:100D000082088985823040F08989823028F0C701C5
:100D1000B8010E94FA0801C081E06896E6E00C94F0
:100D20007B09ACE0B0E0E7E9F6E00C946309698385
:100D30007A838B839C83CE010196BE016B5F7F4FCC
:100D40000E9482088D81823061F1823050F18430BE
:100D500021F48E81882351F12EC02F81388537FDF3
:100D600020C06E812F3131051CF06623F9F023C0BD
:100D70008EE190E0821B930B29853A854B855C853B
:100D800004C056954795379527958A95D2F76623DF
:100D9000B1F050954095309521953F4F4F4F5F4FA3
:100DA0000EC020E030E040E050E009C02FEF3FEF00
:100DB0004FEF5FE704C020E030E040E050E8B901C9
:100DC000CA012C96E2E00C947F09A8E0B0E0EBEEBB
:100DD000F6E00C945B097B018C01611571058105BE
:100DE000910519F482E0898360C083E089838EE1F4
:100DF000C82ED12CDC82CB82ED82FE820F83188735
:100E0000C801B7010E945E07FC013197F7FF3BC0A4
:100E1000222733272E1B3F0B57016801022E04C0E7
:100E2000D694C794B794A7940A94D2F740E050E0C0
:100E300060E070E081E090E0A0E0B0E004C0880FE6
:100E4000991FAA1FBB1F2A95D2F70197A109B109C3
:100E50008E219F21A023B1230097A105B10521F088
:100E600041E050E060E070E04A295B296C297D296F
:100E70004D835E836F8378878EE190E08E1B9F0B9E
:100E80009C838B8312C0309781F00E2E04C0EE0C31
:100E9000FF1C001F111F0A94D2F7ED82FE820F8300
:100EA0001887CE1ADF0ADC82CB821A82CE01019625
:100EB0000E94AD072896EAE00C947709EF92FF9222
:100EC0000F931F937B018C0180E0E81680E0F80609
:100ED00081E0080780E0180788F48FEFE816F10436
:100EE0000105110531F028F088E090E0A0E0B0E0C5
:100EF00017C080E090E0A0E0B0E012C080E0E8160B
:100F000080E0F80680E0080781E0180728F088E113
:100F100090E0A0E0B0E004C080E190E0A0E0B0E0AC
:100F200020E230E040E050E0281B390B4A0B5B0B1D
:100F300004C016950795F794E7948A95D2F7F701C0
:100F4000E859FF4F8081281B310941095109C90126
:100F50001F910F91FF90EF900895DF92EF92FF9213
:100F60000F931F93FC01E480F58006811781D180E7
:100F70008081823048F480E090E0A0E1B0E0E82A8F
:100F8000F92A0A2B1B2BA5C0843009F49FC082309C
:100F900021F4EE24FF24870105C0E114F1040105CA
:100FA000110519F4E0E0F0E096C0628173819FEFD3
:100FB000623879070CF05BC022E83FEF261B370B45
:100FC0002A3131052CF020E030E040E050E02AC02A
:100FD000B801A701022E04C07695679557954795ED
:100FE0000A94D2F781E090E0A0E0B0E004C0880F5E
:100FF000991FAA1FBB1F2A95D2F70197A109B10912
:101000008E219F21A023B1230097A105B10521F0D6
:1010100081E090E0A0E0B0E09A01AB01282B392BF1
:101020004A2B5B2BDA01C9018F779070A070B070EA
:1010300080349105A105B10539F427FF09C0205C72
:101040003F4F4F4F5F4F04C0215C3F4F4F4F5F4FAB
:10105000E0E0F0E02030A0E03A07A0E04A07A0E49A
:101060005A0710F0E1E0F0E079018A0127C060380A
:10107000710564F5FB01E158FF4FD801C7018F7777
:101080009070A070B07080349105A105B10539F45D
:10109000E7FE0DC080E490E0A0E0B0E004C08FE384
:1010A00090E0A0E0B0E0E80EF91E0A1F1B1F17FF3A
:1010B00005C016950795F794E794319687E0169545
:1010C0000795F794E7948A95D1F705C0EE24FF249D
:1010D0008701EFEFF0E06E2F679566276795902FF9
:1010E0009F77D794DD24D7948E2F8695492F462B52
:1010F000582F5D29B701CA011F910F91FF90EF9002
:10110000DF900895FC01DB01408151812281622F33
:101110006F7770E0221F2227221F9381892F880F6B
:10112000822B282F30E0991F9927991F11969C93A5
:10113000119721153105A9F5411551056105710575
:1011400011F482E037C082E89FEF13969C938E9350
:1011500012979A01AB0167E0220F331F441F551FFE
:101160006A95D1F783E08C930DC0220F331F441F83
:10117000551F12968D919C911397019713969C93EE
:101180008E931297203080E0380780E0480780E493
:10119000580758F314962D933D934D935C931797EE
:1011A00008952F3F310579F4411551056105710509
:1011B00019F484E08C93089564FF03C081E08C935C
:1011C00012C01C9210C02F57304013963C932E93A0
:1011D000129783E08C9387E0440F551F661F771F9B
:1011E0008A95D1F7706414964D935D936D937C93BB
:1011F000179708951F93DC01FB019C91923008F42E
:1012000047C08081823008F443C0943051F4119675
:101210001C91843099F58181682F70E0611B710900
:101220003FC0843021F0923031F48230B9F18181B5
:10123000882389F12DC011961C9111978230F1F00D
:1012400081811817D9F412962D913C9113978281C0
:1012500093818217930794F028173907BCF01496EE
:101260008D919D910D90BC91A02D24813581468159
:101270005781281739074A075B0718F4112341F0F3
:101280000AC082179307A407B50740F4112319F089
:1012900061E070E005C06FEF7FEF02C060E070E0DA
:1012A000CB011F9108952F923F924F925F926F92C0
:1012B0007F928F929F92AF92BF92CF92DF92EF92E6
:1012C000FF920F931F93CF93DF93CDB7DEB7CA1B67
:1012D000DB0B0FB6F894DEBF0FBECDBF09942A8892
:1012E000398848885F846E847D848C849B84AA843A
:1012F000B984C884DF80EE80FD800C811B81AA81C7
:10130000B981CE0FD11D0FB6F894DEBF0FBECDBF91
:08131000ED010895F894FFCFF0
:1013180000000000000000000001020203030303B4
:10132800040404040404040405050505050505056D
:10133800050505050505050506060606060606064D
:101348000606060606060606060606060606060635
:10135800060606060606060607070707070707071D
:101368000707070707070707070707070707070705
:1013780007070707070707070707070707070707F5
:1013880007070707070707070707070707070707E5
:1013980007070707070707070808080808080808CD
:1013A80008080808080808080808080808080808B5
:1013B80008080808080808080808080808080808A5
:1013C8000808080808080808080808080808080895
:1013D8000808080808080808080808080808080885
:1013E8000808080808080808080808080808080875
:1013F8000808080808080808080808080808080865
:101408000808080808080808080808080808080854
:0814180008080808080808088C
:00000001FF
