:100000000C942A000C9447000C9447000C94470071
:100010000C9447000C9447000C9447000C94470044
:100020000C94B1030C9447000C9447000C944700C7
:100030000C9447000C9447000C9447000C94470024
:100040000C9447000C9447000C9447000C94470014
:100050000C94470011241FBECFE5D8E0DEBFCDBF12
:1000600011E0A8E6B1E001C01D92AF37B107E1F79A
:1000700011E0A0E6B0E0EAE1FFE002C005900D92D9
:10008000A836B107D9F70E94A7020C948B070C94ED
:10009000000090BD89B988E18AB986E880BD0895DD
:1000A0008FEF87BB1ABA18BA87E08BBB11BA0895D5
:1000B00087E487B987E886B908951FBC85E08EBDBF
:1000C00088E089BF789480EA97E099BD88BD1DBC1F
:1000D0001CBC089518BA0895369A349BFECF349A02
:1000E00024B135B1C90108950E946C009C01909320
:1000F0007901809378018F31910528F181E088BBE7
:100100002D33310500F182E088BB2B353105D8F065
:1001100084E088BB29373105B0F088E088BB2739F7
:10012000310588F080E188BB253B310560F080E235
:1001300088BB233D310538F080E488BB213F310581
:1001400010F080E888BB203F310510F08FEF88BBAE
:100150000895C99B02C05D9BFCCF8CB9089580E9CE
:1001600090E00E94A90083E490E00E94A90084E648
:1001700090E00E94A90088E893E124E630E0F901CC
:100180003197F1F70197D9F780E890E00E94A90034
:1001900083E490E00E94A90084E690E00E94A90018
:1001A00088E893E124E630E0F9013197F1F701970F
:1001B000D9F780E990E00E94A90082E690E00E94D1
:1001C000A90084E690E00E94A90088E893E124E673
:1001D00030E0F9013197F1F70197D9F780E890E025
:1001E0000E94A90082E690E00E94A90084E690E0C7
:1001F0000E94A90088E893E124E630E0F9013197F4
:10020000F1F70197D9F780E990E00E94A9008CE30B
:1002100090E00E94A90084E690E00E94A90088E88E
:1002200093E124E630E0F9013197F1F70197D9F72E
:1002300080E890E00E94A9008CE390E00E94A90071
:1002400084E690E00E94A90088E893E124E630E08B
:10025000F9013197F1F70197D9F70895CF92DF921D
:10026000EF92FF920F931F93CF93DF938BC020E009
:1002700030E0C901840F951FE199FECF9FBB8EBB73
:10028000E09A8DB3F901E658FE4F808324303105A2
:1002900011F41DBC1CBC2F5F3F4F2530310549F7C1
:1002A0004B5F5F4F5093750140937401D0917E0175
:1002B000C0E080917D016E01C80ED11C0E946C00CF
:1002C000892B81F00E946C00843B910558F40F2E1D
:1002D000F0E0EF2EF0E0FF2EF0E40F2FF0E41F2F00
:1002E000F02D1FC00E946C00853B910580F00E949C
:1002F0006C00803F910558F40F2EF0E0EF2EF0E0F7
:10030000FF2EF0E00F2FFFE31F2FF02D0AC00F2E5E
:10031000FDECEF2EFCECFF2EFCEC0F2FFDE31F2F6E
:10032000F02D80917401909175010597B9F0B60197
:1003300080E090E00E94E604A80197010E94BC03BF
:100340007B018C016CB57DB580E090E00E94E604F5
:10035000A80197010E94B60487FDF4CF00E010E0E9
:10036000F801E658FE4F808190E00E94A90001301C
:10037000110519F480917B0188BB0F5F1F4F03307B
:10038000110571F7409174015091750180917601CA
:10039000909177014817590708F469CF10927501B9
:1003A00010927401DF91CF911F910F91FF90EF9008
:1003B000DF90CF9008950E942E0108950F931F9310
:1003C000CF93DF9342C040E050E0CA01820F931FF9
:1003D000E199FECF9FBB8EBBE09A8DB3FA01E65840
:1003E000FE4F80834430510511F41DBC1CBC4F5F8F
:1003F0005F4F4530510549F72B5F3F4F30937501F3
:100400002093740110917E0100E080917D01A8018C
:10041000480F511D2530310529F08CB59DB5841745
:100420009507D8F3C0E0D0E0FE01E658FE4F80818A
:1004300090E00E94A900C130D10519F480917B01A0
:1004400088BB2196C330D10579F720917401309192
:10045000750180917601909177012817390710F482
:10046000C999B1CF1092750110927401DF91CF91AB
:100470001F910F9108950E94DE010895CA9B02C04A
:100480005F9BFCCF8CB1089501C08CB15F99FDCF0B
:10049000089580B580B508952FB7F8948CB59DB5B3
:1004A0002FBF08952FB7F8949DBD8CBD2FBF089521
:1004B000E199FECF9FBB8EBB6DBBE29AE19A089596
:1004C000CF93DF9320E030E0CA9B02C05F9BFCCF5C
:1004D0008CB1F901E658FE4F80832115310539F4BE
:1004E0008CB59DB5482F8CB59DB51DBC1CBC2F5F30
:1004F0003F4F2330310544F340937D0190937E01BB
:1005000080917B0188BB80917201909173019093DF
:10051000770180937601CAE7D1E0809172019091D2
:10052000730169910E945802809172019091730148
:100530000196909373018093720181E0CF37D807C1
:1005400061F7DF91CF9108950E94600208951F9393
:100550008FEF87BB1ABA18BA17E01BBB11BA0E94FB
:100560005D0087E487B987E886B910BC19B988E1CE
:100570008AB986E880BD89B399B3927029B382FFA6
:1005800005C0992369F40E946002F5CF992341F0D8
:1005900020FF03C00E942E01EECF0E94DE01EBCFB0
:1005A00018BA109273011092720101C08CB15F9958
:1005B000FDCFE1CF81E090E061E00E94580282E04F
:1005C00090E062E00E94580283E090E063E00E94C5
:1005D000580284E090E064E00E94580285E090E0D8
:1005E00065E00E94580286E090E066E00E945802B2
:1005F00087E090E067E00E94580288E090E068E0C1
:100600000E94580289E090E069E00E945802E19956
:10061000FECF81E090E09FBB8EBBE09A8DB388BB9C
:1006200088E893E124E630E0F9013197F1F701978A
:10063000D9F7E199FECF82E090E09FBB8EBBE09AB4
:100640008DB388BB88E893E124E630E0F901319767
:10065000F1F70197D9F7E199FECF83E090E09FBBD6
:100660008EBBE09A8DB388BB88E893E124E630E046
:10067000F9013197F1F70197D9F7E199FECF84E0BD
:1006800090E09FBB8EBBE09A8DB388BB88E893E176
:1006900024E630E0F9013197F1F70197D9F7E199B4
:1006A000FECF85E090E09FBB8EBBE09A8DB388BB08
:1006B00088E893E124E630E0F9013197F1F70197FA
:1006C000D9F7E199FECF86E090E09FBB8EBBE09A20
:1006D0008DB388BB88E893E124E630E0F9013197D7
:1006E000F1F70197D9F7E199FECF87E090E09FBB42
:1006F0008EBBE09A8DB388BB88E893E124E630E0B6
:10070000F9013197F1F70197D9F7E199FECF88E028
:1007100090E09FBB8EBBE09A8DB388BB88E893E1E5
:1007200024E630E0F9013197F1F70197D9F7E19923
:10073000FECF89E090E09FBB8EBBE09A8DB388BB73
:1007400088E893E124E630E0F9013197F1F7019769
:10075000D9F70895E199FECF9FBB8EBBE09A8DB388
:1007600008951F920F920FB60F92112418BA0F908E
:100770000FBE0F901F901895A0E2B0E0E2ECF3E0FE
:100780000C94540769837A838B839C832D833E83E7
:100790004F835887CE010196BE01675F7F4F0E944D
:1007A0008306CE010596BE016F5E7F4F0E948306D1
:1007B0009985923088F089898230C8F0943019F494
:1007C000823051F404C0843029F4923081F480E600
:1007D00090E0C6C0923049F420E09A858A89981347
:1007E00021E02A87CE010996BBC0823049F420E07F
:1007F0009A858A89981321E02A8BCE014196B0C050
:100800002D843E844F8458886D887E888F88988C8C
:10081000EE24FF248701AA24BB24650140E050E0B8
:1008200060E070E0E0E0F0E0C10181709070892B41
:10083000E9F0E60CF71C081D191D9A01AB012A0D01
:100840003B1D4C1D5D1D80E090E0A0E0B0E0E61493
:10085000F7040805190520F481E090E0A0E0B0E07D
:10086000BA01A901480F591F6A1F7B1FAA0CBB1CA4
:10087000CC1CDD1C97FE08C081E090E0A0E0B0E059
:10088000A82AB92ACA2ADB2A3196E032F10549F0B2
:10089000660C771C881C991C5694479437942794AF
:1008A000C3CFFA85EA892B893C898B859C85280FE3
:1008B000391F2E5F3F4F17C0CA0181709070892B7E
:1008C00061F016950795F794E79480E090E0A0E03A
:1008D000B0E8E82AF92A0A2B1B2B769567955795DD
:1008E00047952F5F3F4F77FDE7CF0CC0440F551F53
:1008F000661F771F17FD4160EE0CFF1C001F111FC4
:1009000021503040403090E0590790E0690790E472
:10091000790760F32B8F3C8FDB01CA018F779070D2
:10092000A070B07080349105A105B10561F447FD58
:100930000AC0E114F1040105110529F0405C5F4F84
:100940006F4F7F4F40781A8EFE1711F081E08A8F2B
:100950004D8F5E8F6F8F78A383E0898FCE0149968C
:100960000E94AE05A096E2E10C947007A8E1B0E009
:10097000ECEBF4E00C94600769837A838B839C83AF
:100980002D833E834F83588789E0E82EF12CEC0EAF
:10099000FD1ECE010196B7010E9483068E010F5EF7
:1009A0001F4FCE010596B8010E94830689858230CB
:1009B00040F08989823028F0C701B8010E94FB0607
:1009C00001C081E06896E6E00C947C07A8E0B0E006
:1009D000ECEEF4E00C945C077B018C016115710571
:1009E0008105910519F482E0898360C083E08983E1
:1009F0008EE1C82ED12CDC82CB82ED82FE820F8369
:100A00001887C801B7010E945F05FC013197F7FF05
:100A10003BC0222733272E1B3F0B57016801022EB4
:100A200004C0D694C794B794A7940A94D2F740E030
:100A300050E060E070E081E090E0A0E0B0E004C051
:100A4000880F991FAA1FBB1F2A95D2F70197A109EA
:100A5000B1098E219F21A023B1230097A105B105E3
:100A600021F041E050E060E070E04A295B296C2908
:100A70007D294D835E836F8378878EE190E08E1BA6
:100A80009F0B9C838B8312C0309781F00E2E04C085
:100A9000EE0CFF1C001F111F0A94D2F7ED82FE829C
:100AA0000F831887CE1ADF0ADC82CB821A82CE012E
:100AB00001960E94AE052896EAE00C947807EF9222
:100AC000FF920F931F937B018C0180E0E81680E07A
:100AD000F80681E0080780E0180788F48FEFE81631
:100AE000F1040105110531F028F088E090E0A0E064
:100AF000B0E017C080E090E0A0E0B0E012C080E07D
:100B0000E81680E0F80680E0080781E0180728F082
:100B100088E190E0A0E0B0E004C080E190E0A0E0D7
:100B2000B0E020E230E040E050E0281B390B4A0BF7
:100B30005B0B04C016950795F794E7948A95D2F756
:100B4000F701E859FF4F8081281B310941095109FC
:100B5000C9011F910F91FF90EF900895DF92EF92DE
:100B6000FF920F931F93FC01E480F58006811781AB
:100B7000D1808081823048F480E090E0A0E1B0E054
:100B8000E82AF92A0A2B1B2BA5C0843009F49FC040
:100B9000823021F4EE24FF24870105C0E114F10422
:100BA0000105110519F4E0E0F0E096C0628173815F
:100BB0009FEF623879070CF05BC022E83FEF261BFD
:100BC000370B2A3131052CF020E030E040E050E0D6
:100BD0002AC0B801A701022E04C0769567955795E3
:100BE00047950A94D2F781E090E0A0E0B0E004C01D
:100BF000880F991FAA1FBB1F2A95D2F70197A10939
:100C0000B1098E219F21A023B1230097A105B10531
:100C100021F081E090E0A0E0B0E09A01AB01282B48
:100C2000392B4A2B5B2BDA01C9018F779070A070AA
:100C3000B07080349105A105B10539F427FF09C0D2
:100C4000205C3F4F4F4F5F4F04C0215C3F4F4F4FE1
:100C50005F4FE0E0F0E02030A0E03A07A0E04A0774
:100C6000A0E45A0710F0E1E0F0E079018A0127C022
:100C70006038710564F5FB01E158FF4FD801C701E9
:100C80008F779070A070B07080349105A105B10588
:100C900039F4E7FE0DC080E490E0A0E0B0E004C0CD
:100CA0008FE390E0A0E0B0E0E80EF91E0A1F1B1FE2
:100CB00017FF05C016950795F794E794319687E0DE
:100CC00016950795F794E7948A95D1F705C0EE2419
:100CD000FF248701EFEFF0E06E2F67956627679599
:100CE000902F9F77D794DD24D7948E2F8695492F08
:100CF000462B582F5D29B701CA011F910F91FF9014
:100D0000EF90DF900895FC01DB0140815181228149
:100D1000622F6F7770E0221F2227221F9381892F75
:100D2000880F822B282F30E0991F9927991F119641
:100D30009C93119721153105A9F5411551056105C0
:100D4000710511F482E037C082E89FEF13969C93FF
:100D50008E9312979A01AB0167E0220F331F441F55
:100D6000551F6A95D1F783E08C930DC0220F331F76
:100D7000441F551F12968D919C91139701971396BE
:100D80009C938E931297203080E0380780E04807CC
:100D900080E4580758F314962D933D934D935C933C
:100DA000179708952F3F310579F4411551056105D5
:100DB000710519F484E08C93089564FF03C081E009
:100DC0008C9312C01C9210C02F57304013963C9346
:100DD0002E93129783E08C9387E0440F551F661F74
:100DE000771F8A95D1F7706414964D935D936D9338
:100DF0007C93179708951F93DC01FB019C9192301F
:100E000008F447C08081823008F443C0943051F424
:100E100011961C91843099F58181682F70E0611BD7
:100E200071093FC0843021F0923031F48230B9F141
:100E30008181882389F12DC011961C9111978230F0
:100E4000F1F081811817D9F412962D913C911397E6
:100E5000828193818217930794F028173907BCF099
:100E600014968D919D910D90BC91A02D248135817A
:100E700046815781281739074A075B0718F4112361
:100E800041F00AC082179307A407B50740F4112365
:100E900019F061E070E005C06FEF7FEF02C060E025
:100EA00070E0CB011F9108952F923F924F925F9275
:100EB0006F927F928F929F92AF92BF92CF92DF926A
:100EC000EF92FF920F931F93CF93DF93CDB7DEB7CF
:100ED000CA1BDB0B0FB6F894DEBF0FBECDBF099463
:100EE0002A88398848885F846E847D848C849B84BA
:100EF000AA84B984C884DF80EE80FD800C811B81C8
:100F0000AA81B981CE0FD11D0FB6F894DEBF0FBEF6
:0A0F1000CDBFED010895F894FFCF66
:100F1A0000000000000000000001020203030303B6
:100F2A00040404040404040405050505050505056F
:100F3A00050505050505050506060606060606064F
:100F4A000606060606060606060606060606060637
:100F5A00060606060606060607070707070707071F
:100F6A000707070707070707070707070707070707
:100F7A0007070707070707070707070707070707F7
:100F8A0007070707070707070707070707070707E7
:100F9A0007070707070707070808080808080808CF
:100FAA0008080808080808080808080808080808B7
:100FBA0008080808080808080808080808080808A7
:100FCA000808080808080808080808080808080897
:100FDA000808080808080808080808080808080887
:100FEA000808080808080808080808080808080877
:100FFA000808080808080808080808080808080867
:10100A000808080808080808080808080808080856
:08101A0008080808080808088E
:00000001FF
