:100000000C942A000C9447000C9447000C94470071
:100010000C9447000C9447000C9447000C94470044
:100020000C9447000C9447000C9447000C94470034
:100030000C9447000C9447000C9447000C94470024
:100040000C9447000C9447000C9447000C94470014
:100050000C94470011241FBECFE5D8E0DEBFCDBF12
:1000600011E0A0E6B0E0EAEFF1E102C005900D92E8
:10007000A037B107D9F711E0A0E7B1E001C01D92A8
:10008000A038B107E1F70E94C6010C94FB080C945C
:10009000000090BD89B988E18AB986E880BD0895DD
:1000A0008FEF87BB1ABA18BA87E08BBB11BA0895D5
:1000B00087E487B987E886B9089585E08EBD81EA2F
:1000C00097E09BBD8ABD1DBC1CBC089504C05F9B0E
:1000D000FECF8CB188BB5F9BFECF8CB18823B9F774
:1000E0000895AF92BF92CF92DF92EF92FF920F935B
:1000F0001F93AA2797FDA095BA2FBC01CD010E949E
:10010000A4055B016C0120E030E04AE753E40E9463
:100110001A047B018C0120E030E040E85FE30E949C
:10012000740588231CF461E070E024C0C801B701A5
:1001300020E03FEF4FE757E40E9414051816B4F48F
:10014000C601B50120E030E040E251E40E941A040B
:100150000E94440289E190E005C0FC013197F1F76B
:100160006150704061157105C1F707C0C801B70142
:100170000E944402CB010197F1F71F910F91FF906C
:10018000EF90DF90CF90BF90AF90089518BA089588
:1001900008B604FEFDCF88B391E0892788BB1DBC5B
:1001A0001CBC88B7806188BF0895369A349BFECF07
:1001B000349A24B135B1C90108950E94D5009C013B
:1001C00090937F0180937E018F31910528F181E02A
:1001D00088BB2D33310500F182E088BB2B3531051A
:1001E000D8F084E088BB29373105B0F088E088BBBF
:1001F0002739310588F080E188BB253B310560F067
:1002000080E288BB233D310538F080E488BB213F84
:10021000310510F080E888BB203F310510F08FEFEA
:1002200088BB08950E94DD0008959BB18CB90895A4
:100230005D9BFECF80916000909161000E9415014E
:1002400080916200909163000E941501809164008A
:10025000909165000E941501809166009091670061
:100260000E94150108958F929F92AF92BF92CF92F4
:10027000DF92EF92FF920F931F93CF93DF93109231
:100280007B0110927A0189E1882E912C63C0E1995B
:10029000FECF3FBB2EBBE09A8DB388BBE199FECF6A
:1002A0003FBB2EBBE09A8DB390E00E941501C09138
:1002B0007A01D0917B012196D0937B01C0937A0182
:1002C000E199FECFDFBBCEBBE09A6DB370E080E07A
:1002D00090E00E9456065B016C0120E030E04AE7A6
:1002E00053E40E941A047B018C0120E030E040E8D6
:1002F0005FE30E94740588231CF461E070E022C073
:10030000C801B70120E03FEF4FE757E40E94140512
:100310001816A4F4C601B50120E030E040E251E433
:100320000E941A040E94440205C0C4010197F1F71B
:100330006150704061157105C1F707C0C801B70170
:100340000E944402CB010197F1F72196D0937B01E3
:10035000C0937A0120917A0130917B0180917C01D8
:1003600090917D012817390708F491CFDF91CF9143
:100370001F910F91FF90EF90DF90CF90BF90AF90C3
:100380009F908F9008950E94330108958FEF87BB4F
:100390001ABA18BA27E02BBB11BA85E08EBD81EAE4
:1003A00097E09BBD8ABD1DBC1CBC87E487B987E86C
:1003B00086B910BC29B988E18AB986E880BD89B3BD
:1003C00099B3927029B382FF05C0992361F40E940A
:1003D000660009C0992339F020FF03C00E94DD00A8
:1003E00002C00E94330118BAEACF5F9BFECF8CB1E6
:1003F000089501C08CB15F99FDCF089580B580B597
:1004000008952FB7F8948CB59DB52FBF08952FB7D9
:10041000F8949DBD8CBD2FBF0895E199FECF9FBB81
:100420008EBB6DBBE29AE19A089588B7806188BF60
:100430005F9BFECF8CB18823F9F080917A01909177
:100440007B015F9BFECF6CB10E940D025F9BFECFD4
:100450008CB188BB80917A0190917B010196909339
:100460007B0180937A0180917601909177010196CA
:1004700090937701809376010895E199FECF9FBB19
:100480008EBBE09A8DB30895EF92FF920F931F9366
:100490007B018C0120E030E040E05FE40E944405F5
:1004A00088238CF0C801B70120E030E040E05FE431
:1004B0000E94BC030E9402069B01AC012050304008
:1004C0004040504806C0C801B7010E9402069B0187
:1004D000AC01B901CA011F910F91FF90EF900895EF
:1004E000A0E0B0E0E6E7F2E00C94C408DC012B01E8
:1004F000FA019C91923008F439C1EB018881823075
:1005000008F433C1943069F4843009F02FC1119696
:100510009C9111978981981709F428C1A8E6B0E049
:1005200025C1843009F421C18230A9F4923009F048
:100530001DC19A01AD0188E0EA010990AE01E9010F
:1005400009929E018150C1F7E201898111969C9127
:100550008923818308C1923009F407C112962D9036
:100560003C901397EB018A819B811496AD90BD90CE
:10057000CD90DC901797EC80FD800E811F8191015A
:10058000281B390BB90137FF04C066277727621B88
:10059000730B603271050CF061C0121613066CF516
:1005A00037014801062E04C0969487947794679487
:1005B0000A94D2F721E030E040E050E004C0220F7E
:1005C000331F441F551F6A95D2F7215030404040D9
:1005D00050402E213F214023512321153105410553
:1005E000510521F021E030E040E050E079018A013E
:1005F000E628F728082919293CC0232BD1F1260E1B
:10060000371E35014601062E04C0969487947794D0
:1006100067940A94D2F721E030E040E050E004C053
:10062000220F331F441F551F6A95D2F721503040C7
:10063000404050402A213B214C215D2121153105AC
:100640004105510521F021E030E040E050E0590142
:100650006A01A628B728C828D9280BC08215930597
:100660002CF01C01AA24BB24650103C0EE24FF2446
:10067000870111969C91D20111968C91981709F4DB
:1006800045C0992339F0A80197012A193B094C0963
:100690005D0906C0A60195012E193F09400B510BBB
:1006A00057FD08C01182338222822483358346831A
:1006B00057831DC081E08183338222828827992756
:1006C000DC01821B930BA40BB50B84839583A6835B
:1006D000B7830DC0220F331F441F551F248335835A
:1006E00046835783828193810197938382832481F8
:1006F000358146815781DA01C9010197A109B10904
:100700008F5F9F4FAF4FBF4328F30BC0918333825E
:100710002282EA0CFB1C0C1D1D1DE482F58206835F
:10072000178383E08083248135814681578157FF79
:100730001AC0C901AA2797FDA095BA2F81709070A1
:10074000A070B0705695479537952795822B932BBF
:10075000A42BB52B84839583A683B7838281938151
:10076000019693838283DF0101C0D201CD01CDB711
:10077000DEB7E2E10C94E008A0E2B0E0E2ECF3E0E6
:100780000C94D00869837A838B839C832D833E836A
:100790004F835887E9E0EE2EF12CEC0EFD1ECE01C2
:1007A0000196B7010E94F3078E010F5E1F4FCE0125
:1007B0000596B8010E94F3078A8991E089278A8B00
:1007C000C701B801AE01475E5F4F0E9470020E94F0
:1007D0001E07A096E6E00C94EC08A0E2B0E0E3EF80
:1007E000F3E00C94D00869837A838B839C832D83F8
:1007F0003E834F835887F9E0EF2EF12CEC0EFD1E5F
:10080000CE010196B7010E94F3078E010F5E1F4FC4
:10081000CE010596B8010E94F307C701B801AE01E9
:10082000475E5F4F0E9470020E941E07A096E6E09E
:100830000C94EC08A0E2B0E0E0E2F4E00C94C40810
:1008400069837A838B839C832D833E834F83588770
:10085000CE010196BE01675F7F4F0E94F307CE0174
:100860000596BE016F5E7F4F0E94F3079985923017
:1008700088F089898230C8F0943019F4823051F4BC
:1008800004C0843029F4923081F488E690E0C6C038
:10089000923049F420E09A858A89981321E02A87CA
:1008A000CE010996BBC0823049F420E09A858A893E
:1008B000981321E02A8BCE014196B0C02D843E844E
:1008C0004F8458886D887E888F88988CEE24FF240A
:1008D0008701AA24BB24650140E050E060E070E09D
:1008E000E0E0F0E0C10181709070892BE9F0E60C46
:1008F000F71C081D191D9A01AB012A0D3B1D4C1D4B
:100900005D1D80E090E0A0E0B0E0E614F70408058B
:10091000190520F481E090E0A0E0B0E0BA01A9015F
:10092000480F591F6A1F7B1FAA0CBB1CCC1CDD1C67
:1009300097FE08C081E090E0A0E0B0E0A82AB92AC4
:10094000CA2ADB2A3196E032F10549F0660C771CA1
:10095000881C991C5694479437942794C3CFFA85E2
:10096000EA892B893C898B859C85280F391F2E5F4E
:100970003F4F17C0CA0181709070892B61F01695A6
:100980000795F794E79480E090E0A0E0B0E8E82ACB
:10099000F92A0A2B1B2B76956795579547952F5F5C
:1009A0003F4F77FDE7CF0CC0440F551F661F771FE1
:1009B00017FD4160EE0CFF1C001F111F215030403D
:1009C000403090E0590790E0690790E4790760F3C0
:1009D0002B8F3C8FDB01CA018F779070A070B070B5
:1009E00080349105A105B10561F447FD0AC0E11409
:1009F000F1040105110529F0405C5F4F6F4F7F4FF7
:100A000040781A8EFE1711F081E08A8F4D8F5E8F2D
:100A10006F8F78A383E0898FCE0149960E941E07CD
:100A2000A096E2E10C94E008A8E1B0E0EAE1F5E08C
:100A30000C94D00869837A838B839C832D833E83B7
:100A40004F83588789E0E82EF12CEC0EFD1ECE0175
:100A50000196B7010E94F3078E010F5E1F4FCE0172
:100A60000596B8010E94F3078985823040F0898994
:100A7000823028F0C701B8010E946B0801C08FEFD7
:100A80006896E6E00C94EC08A8E1B0E0EAE4F5E052
:100A90000C94D00869837A838B839C832D833E8357
:100AA0004F83588789E0E82EF12CEC0EFD1ECE0115
:100AB0000196B7010E94F3078E010F5E1F4FCE0112
:100AC0000596B8010E94F3078985823040F0898934
:100AD000823028F0C701B8010E946B0801C08FEF77
:100AE0006896E6E00C94EC08A8E1B0E0EAE7F5E0EF
:100AF0000C94D00869837A838B839C832D833E83F7
:100B00004F83588789E0E82EF12CEC0EFD1ECE01B4
:100B10000196B7010E94F3078E010F5E1F4FCE01B1
:100B20000596B8010E94F3078985823040F08989D3
:100B3000823028F0C701B8010E946B0801C081E033
:100B40006896E6E00C94EC08A8E0B0E0EAEAF5E08C
:100B50000C94CD089B01AC0183E08983DA01C901C3
:100B60008827B7FD83959927AA27BB27B82E21157B
:100B700031054105510519F482E089833AC0882383
:100B8000A9F0203080E0380780E0480780E8580767
:100B900029F460E070E080E09FEC30C0EE24FF2498
:100BA0008701E21AF30A040B150B02C079018A01CE
:100BB0008EE1C82ED12CDC82CB82ED82FE820F83A7
:100BC0001887C801B7010E94CF06019718161906A9
:100BD00084F4082E04C0EE0CFF1C001F111F0A94A1
:100BE000D2F7ED82FE820F831887C81AD90ADC82F9
:100BF000CB82BA82CE0101960E941E072896E9E0B8
:100C00000C94E908ACE0B0E0E8E0F6E00C94D4081D
:100C100069837A838B839C83CE010196BE016B5FCF
:100C20007F4F0E94F3078D81823061F1823050F155
:100C3000843021F48E81882351F12EC02F81388594
:100C400037FD20C06E812F3131051CF06623F9F08D
:100C500023C08EE190E0821B930B29853A854B855A
:100C60005C8504C056954795379527958A95D2F7A8
:100C70006623B1F050954095309521953F4F4F4FE9
:100C80005F4F0EC020E030E040E050E009C02FEFA1
:100C90003FEF4FEF5FE704C020E030E040E050E876
:100CA000B901CA012C96E2E00C94F008A8E0B0E08B
:100CB000ECE5F6E00C94CC087B018C016115710524
:100CC0008105910519F482E0898360C083E08983FE
:100CD0008EE1C82ED12CDC82CB82ED82FE820F8386
:100CE0001887C801B7010E94CF06FC013197F7FFB2
:100CF0003BC0222733272E1B3F0B57016801022ED2
:100D000004C0D694C794B794A7940A94D2F740E04D
:100D100050E060E070E081E090E0A0E0B0E004C06E
:100D2000880F991FAA1FBB1F2A95D2F70197A10907
:100D3000B1098E219F21A023B1230097A105B10500
:100D400021F041E050E060E070E04A295B296C2925
:100D50007D294D835E836F8378878EE190E08E1BC3
:100D60009F0B9C838B8312C0309781F00E2E04C0A2
:100D7000EE0CFF1C001F111F0A94D2F7ED82FE82B9
:100D80000F831887CE1ADF0ADC82CB821A82CE014B
:100D900001960E941E072896EAE00C94E808EF925C
:100DA000FF920F931F937B018C0180E0E81680E097
:100DB000F80681E0080780E0180788F48FEFE8164E
:100DC000F1040105110531F028F088E090E0A0E081
:100DD000B0E017C080E090E0A0E0B0E012C080E09A
:100DE000E81680E0F80680E0080781E0180728F0A0
:100DF00088E190E0A0E0B0E004C080E190E0A0E0F5
:100E0000B0E020E230E040E050E0281B390B4A0B14
:100E10005B0B04C016950795F794E7948A95D2F773
:100E2000F701E059FF4F8081281B31094109510921
:100E3000C9011F910F91FF90EF900895DF92EF92FB
:100E4000FF920F931F93FC01E480F58006811781C8
:100E5000D1808081823048F480E090E0A0E1B0E071
:100E6000E82AF92A0A2B1B2BA5C0843009F49FC05D
:100E7000823021F4EE24FF24870105C0E114F1043F
:100E80000105110519F4E0E0F0E096C0628173817C
:100E90009FEF623879070CF05BC022E83FEF261B1A
:100EA000370B2A3131052CF020E030E040E050E0F3
:100EB0002AC0B801A701022E04C076956795579500
:100EC00047950A94D2F781E090E0A0E0B0E004C03A
:100ED000880F991FAA1FBB1F2A95D2F70197A10956
:100EE000B1098E219F21A023B1230097A105B1054F
:100EF00021F081E090E0A0E0B0E09A01AB01282B66
:100F0000392B4A2B5B2BDA01C9018F779070A070C7
:100F1000B07080349105A105B10539F427FF09C0EF
:100F2000205C3F4F4F4F5F4F04C0215C3F4F4F4FFE
:100F30005F4FE0E0F0E02030A0E03A07A0E04A0791
:100F4000A0E45A0710F0E1E0F0E079018A0127C03F
:100F50006038710564F5FB01E158FF4FD801C70106
:100F60008F779070A070B07080349105A105B105A5
:100F700039F4E7FE0DC080E490E0A0E0B0E004C0EA
:100F80008FE390E0A0E0B0E0E80EF91E0A1F1B1FFF
:100F900017FF05C016950795F794E794319687E0FB
:100FA00016950795F794E7948A95D1F705C0EE2436
:100FB000FF248701EFEFF0E06E2F679566276795B6
:100FC000902F9F77D794DD24D7948E2F8695492F25
:100FD000462B582F5D29B701CA011F910F91FF9031
:100FE000EF90DF900895FC01DB0140815181228167
:100FF000622F6F7770E0221F2227221F9381892F93
:10100000880F822B282F30E0991F9927991F11965E
:101010009C93119721153105A9F5411551056105DD
:10102000710511F482E037C082E89FEF13969C931C
:101030008E9312979A01AB0167E0220F331F441F72
:10104000551F6A95D1F783E08C930DC0220F331F93
:10105000441F551F12968D919C91139701971396DB
:101060009C938E931297203080E0380780E04807E9
:1010700080E4580758F314962D933D934D935C9359
:10108000179708952F3F310579F4411551056105F2
:10109000710519F484E08C93089564FF03C081E026
:1010A0008C9312C01C9210C02F57304013963C9363
:1010B0002E93129783E08C9387E0440F551F661F91
:1010C000771F8A95D1F7706414964D935D936D9355
:1010D0007C93179708951F93DC01FB019C9192303C
:1010E00008F447C08081823008F443C0943051F442
:1010F00011961C91843099F58181682F70E0611BF5
:1011000071093FC0843021F0923031F48230B9F15E
:101110008181882389F12DC011961C91119782300D
:10112000F1F081811817D9F412962D913C91139703
:10113000828193818217930794F028173907BCF0B6
:1011400014968D919D910D90BC91A02D2481358197
:1011500046815781281739074A075B0718F411237E
:1011600041F00AC082179307A407B50740F4112382
:1011700019F061E070E005C06FEF7FEF02C060E042
:1011800070E0CB011F9108952F923F924F925F9292
:101190006F927F928F929F92AF92BF92CF92DF9287
:1011A000EF92FF920F931F93CF93DF93CDB7DEB7EC
:1011B000CA1BDB0B0FB6F894DEBF0FBECDBF099480
:1011C0002A88398848885F846E847D848C849B84D7
:1011D000AA84B984C884DF80EE80FD800C811B81E5
:1011E000AA81B981CE0FD11D0FB6F894DEBF0FBE14
:0A11F000CDBFED010895F894FFCF84
:1011FA0090003C007F00800000000000000000001A
:10120A0000010202030303030404040404040404A3
:10121A000505050505050505050505050505050574
:10122A000606060606060606060606060606060654
:10123A000606060606060606060606060606060644
:10124A000707070707070707070707070707070724
:10125A000707070707070707070707070707070714
:10126A000707070707070707070707070707070704
:10127A0007070707070707070707070707070707F4
:10128A0008080808080808080808080808080808D4
:10129A0008080808080808080808080808080808C4
:1012AA0008080808080808080808080808080808B4
:1012BA0008080808080808080808080808080808A4
:1012CA000808080808080808080808080808080894
:1012DA000808080808080808080808080808080884
:1012EA000808080808080808080808080808080874
:1012FA000808080808080808080808080808080864
:00000001FF
