:100000000C942A000C9447000C9447000C94470071
:100010000C9447000C9447000C9447000C94470044
:100020000C94DA010C9447000C9447000C944700A0
:100030000C9447000C9447000C9447000C94470024
:100040000C9447000C9447000C9447000C94470014
:100050000C94470011241FBECFE5D8E0DEBFCDBF12
:1000600011E0A8E6B1E001C01D92AF37B107E1F79A
:1000700011E0A0E6B0E0ECE6FBE002C005900D92D6
:10008000A836B107D9F70E94A5010C94B4050C94C9
:10009000000090BD89B988E18AB986E880BD0895DD
:1000A0008FEF87BB1ABA18BA87E08BBB11BA0895D5
:1000B00087E487B987E886B908951FBC85E08EBDBF
:1000C00088E089BF789480EA97E099BD88BD1DBC1F
:1000D0001CBC089518BA0895369A349BFECF349A02
:1000E00024B135B1C9010895C99B02C05D9BFCCF05
:1000F0008CB90895CF92DF92EF92FF920F931F93E6
:10010000CF93DF939DC020E030E0C901840F951F9D
:10011000E199FECF9FBB8EBBE09A8DB3F901E65803
:10012000FE4F80832430310511F41DBC1CBC2F5FB1
:100130003F4F2530310549F74B5F5F4F50937501B5
:1001400040937401D0917E01C0E080917D016E01E9
:10015000C80ED11CC99B39C0C89B37C00E946C0017
:10016000892B79F00E946C00CC9758F40F2EF0E0A8
:10017000EF2EF0E0FF2EF0E40F2FF0E41F2FF02D14
:100180002EC00E946C00CD9780F00E946C00883CCD
:10019000910558F40F2EF0E0EF2EF0E0FF2EF0E086
:1001A0000F2FFFE31F2FF02D1AC00E946C00893C17
:1001B000910558F00F2EFDECEF2EFCECFF2EFCEC21
:1001C0000F2FFDE31F2FF02D0AC00F2EF0E0EF2EB2
:1001D000F0E0FF2EF0E80F2FFFE31F2FF02D8091AE
:1001E0007401909175010597B9F0B60180E090E037
:1001F0000E940F03A80197010E94E5017B018C0179
:100200006CB57DB580E090E00E940F03A8019701D6
:100210000E94DF0287FDF4CF00E010E0F801E6580D
:10022000FE4F808190E00E9474000130110519F4A6
:1002300080917B0188BB0F5F1F4F0330110571F761
:1002400040917401509175018091760190917701F0
:100250004817590710F4C99956CF1092750110929A
:100260007401DF91CF911F910F91FF90EF90DF907C
:10027000CF9008950E947A0008950E947A00089510
:10028000CA9B02C05F9BFCCF8CB1089501C08CB1AA
:100290005F99FDCF089580B580B508952FB7F89484
:1002A0008CB59DB52FBF08952FB7F8949DBD8CBD1B
:1002B0002FBF0895E199FECF9FBB8EBB6DBBE29A25
:1002C000E19A0895CF93DF9320E030E0CA9B02C00B
:1002D0005F9BFCCF8CB1F901E658FE4F808321155E
:1002E000310539F48CB59DB5482F8CB59DB51DBC35
:1002F0001CBC2F5F3F4F2330310544F340937D01F9
:1003000090937E0180917B0188BBCAE7D1E0809108
:1003100072019091730169910E945A01809172015A
:10032000909173010196909373018093720121E083
:10033000CF37D20761F79093770180937601DF91F1
:10034000CF9108950E94620108951F938FEF87BB9C
:100350001ABA18BA17E01BBB11BA0E945D0087E4F5
:1003600087B987E886B910BC19B988E18AB986E8E7
:1003700080BD89B399B3927029B382FF05C09923D8
:1003800041F40E946201F5CF992319F00E947A008E
:10039000F0CF18BA109273011092720101C08CB1A3
:1003A0005F99FDCFE6CFE199FECF9FBB8EBBE09A70
:1003B0008DB308951F920F920FB60F92112418BAA1
:1003C0000F900FBE0F901F901895A0E2B0E0EBEEDB
:1003D000F1E00C947D0569837A838B839C832D8364
:1003E0003E834F835887CE010196BE01675F7F4FE2
:1003F0000E94AC04CE010596BE016F5E7F4F0E9445
:10040000AC049985923088F089898230C8F09430A4
:1004100019F4823051F404C0843029F4923081F40C
:1004200080E690E0C6C0923049F420E09A858A893F
:10043000981321E02A87CE010996BBC0823049F487
:1004400020E09A858A89981321E02A8BCE01419673
:10045000B0C02D843E844F8458886D887E888F88F4
:10046000988CEE24FF248701AA24BB24650140E078
:1004700050E060E070E0E0E0F0E0C1018170907079
:10048000892BE9F0E60CF71C081D191D9A01AB0138
:100490002A0D3B1D4C1D5D1D80E090E0A0E0B0E00A
:1004A000E614F7040805190520F481E090E0A0E0C7
:1004B000B0E0BA01A901480F591F6A1F7B1FAA0C9F
:1004C000BB1CCC1CDD1C97FE08C081E090E0A0E0C6
:1004D000B0E0A82AB92ACA2ADB2A3196E032F1050F
:1004E00049F0660C771C881C991C569447943794E5
:1004F0002794C3CFFA85EA892B893C898B859C8513
:10050000280F391F2E5F3F4F17C0CA0181709070AE
:10051000892B61F016950795F794E79480E090E0B9
:10052000A0E0B0E8E82AF92A0A2B1B2B76956795FC
:10053000579547952F5F3F4F77FDE7CF0CC0440F8E
:10054000551F661F771F17FD4160EE0CFF1C001F33
:10055000111F21503040403090E0590790E069076A
:1005600090E4790760F32B8F3C8FDB01CA018F7712
:100570009070A070B07080349105A105B10561F450
:1005800047FD0AC0E114F1040105110529F0405CA2
:100590005F4F6F4F7F4F40781A8EFE1711F081E04A
:1005A0008A8F4D8F5E8F6F8F78A383E0898FCE0106
:1005B00049960E94D703A096E2E10C949905A8E120
:1005C000B0E0E5EEF2E00C94890569837A838B83D1
:1005D0009C832D833E834F83588789E0E82EF12C3E
:1005E000EC0EFD1ECE010196B7010E94AC048E01F7
:1005F0000F5E1F4FCE010596B8010E94AC0489859D
:10060000823040F08989823028F0C701B8010E9409
:10061000240501C081E06896E6E00C94A505A8E0F9
:10062000B0E0E5E1F3E00C9485057B018C016115F8
:1006300071058105910519F482E0898360C083E02A
:1006400089838EE1C82ED12CDC82CB82ED82FE82A2
:100650000F831887C801B7010E948803FC013197F6
:10066000F7FF3BC0222733272E1B3F0B57016801A2
:10067000022E04C0D694C794B794A7940A94D2F7D4
:1006800040E050E060E070E081E090E0A0E0B0E0A9
:1006900004C0880F991FAA1FBB1F2A95D2F7019784
:1006A000A109B1098E219F21A023B1230097A105A3
:1006B000B10521F041E050E060E070E04A295B299B
:1006C0006C297D294D835E836F8378878EE190E06E
:1006D0008E1B9F0B9C838B8312C0309781F00E2E54
:1006E00004C0EE0CFF1C001F111F0A94D2F7ED820C
:1006F000FE820F831887CE1ADF0ADC82CB821A8231
:10070000CE0101960E94D7032896EAE00C94A10539
:10071000EF92FF920F931F937B018C0180E0E8160C
:1007200080E0F80681E0080780E0180788F48FEF82
:10073000E816F1040105110531F028F088E090E099
:10074000A0E0B0E017C080E090E0A0E0B0E012C010
:1007500080E0E81680E0F80680E0080781E01807EE
:1007600028F088E190E0A0E0B0E004C080E190E0F3
:10077000A0E0B0E020E230E040E050E0281B390B80
:100780004A0B5B0B04C016950795F794E7948A957E
:10079000D2F7F701E859FF4F8081281B3109410941
:1007A0005109C9011F910F91FF90EF900895DF92B9
:1007B000EF92FF920F931F93FC01E480F580068176
:1007C0001781D1808081823048F480E090E0A0E100
:1007D000B0E0E82AF92A0A2B1B2BA5C0843009F4C3
:1007E0009FC0823021F4EE24FF24870105C0E1146C
:1007F000F1040105110519F4E0E0F0E096C0628112
:1008000073819FEF623879070CF05BC022E83FEFFD
:10081000261B370B2A3131052CF020E030E040E078
:1008200050E02AC0B801A701022E04C07695679552
:10083000579547950A94D2F781E090E0A0E0B0E0A8
:1008400004C0880F991FAA1FBB1F2A95D2F70197D2
:10085000A109B1098E219F21A023B1230097A105F1
:10086000B10521F081E090E0A0E0B0E09A01AB0199
:10087000282B392B4A2B5B2BDA01C9018F7790701B
:10088000A070B07080349105A105B10539F427FF3F
:1008900009C0205C3F4F4F4F5F4F04C0215C3F4F6A
:1008A0004F4F5F4FE0E0F0E02030A0E03A07A0E0DB
:1008B0004A07A0E45A0710F0E1E0F0E079018A016C
:1008C00027C06038710564F5FB01E158FF4FD8017E
:1008D000C7018F779070A070B07080349105A1052A
:1008E000B10539F4E7FE0DC080E490E0A0E0B0E08F
:1008F00004C08FE390E0A0E0B0E0E80EF91E0A1F0C
:100900001B1F17FF05C016950795F794E7943196BE
:1009100087E016950795F794E7948A95D1F705C077
:10092000EE24FF248701EFEFF0E06E2F6795662736
:100930006795902F9F77D794DD24D7948E2F869537
:10094000492F462B582F5D29B701CA011F910F91DE
:10095000FF90EF90DF900895FC01DB014081518111
:100960002281622F6F7770E0221F2227221F93813E
:10097000892F880F822B282F30E0991F9927991FE4
:1009800011969C93119721153105A9F54115510533
:100990006105710511F482E037C082E89FEF13967C
:1009A0009C938E9312979A01AB0167E0220F331F3D
:1009B000441F551F6A95D1F783E08C930DC0220F19
:1009C000331F441F551F12968D919C9113970197C9
:1009D00013969C938E931297203080E0380780E026
:1009E000480780E4580758F314962D933D934D9390
:1009F0005C93179708952F3F310579F44115510500
:100A00006105710519F484E08C93089564FF03C0B7
:100A100081E08C9312C01C9210C02F573040139667
:100A20003C932E93129783E08C9387E0440F551FDD
:100A3000661F771F8A95D1F7706414964D935D9366
:100A40006D937C93179708951F93DC01FB019C9194
:100A5000923008F447C08081823008F443C094305B
:100A600051F411961C91843099F58181682F70E0C2
:100A7000611B71093FC0843021F0923031F4823023
:100A8000B9F18181882389F12DC011961C911197AC
:100A90008230F1F081811817D9F412962D913C9192
:100AA0001397828193818217930794F0281739074F
:100AB000BCF014968D919D910D90BC91A02D248138
:100AC000358146815781281739074A075B0718F493
:100AD000112341F00AC082179307A407B50740F419
:100AE000112319F061E070E005C06FEF7FEF02C0E5
:100AF00060E070E0CB011F9108952F923F924F92DA
:100B00005F926F927F928F929F92AF92BF92CF929D
:100B1000DF92EF92FF920F931F93CF93DF93CDB7A6
:100B2000DEB7CA1BDB0B0FB6F894DEBF0FBECDBF1E
:100B300009942A88398848885F846E847D848C84EF
:100B40009B84AA84B984C884DF80EE80FD800C81F8
:100B50001B81AA81B981CE0FD11D0FB6F894DEBFDB
:0C0B60000FBECDBFED010895F894FFCF4B
:100B6C000000000000000000000102020303030368
:100B7C000404040404040404050505050505050521
:100B8C000505050505050505060606060606060601
:100B9C0006060606060606060606060606060606E9
:100BAC0006060606060606060707070707070707D1
:100BBC0007070707070707070707070707070707B9
:100BCC0007070707070707070707070707070707A9
:100BDC000707070707070707070707070707070799
:100BEC000707070707070707080808080808080881
:100BFC000808080808080808080808080808080869
:100C0C000808080808080808080808080808080858
:100C1C000808080808080808080808080808080848
:100C2C000808080808080808080808080808080838
:100C3C000808080808080808080808080808080828
:100C4C000808080808080808080808080808080818
:100C5C000808080808080808080808080808080808
:080C6C00080808080808080840
:00000001FF
